{
  "address": "0xCf7Ed3AccA5a467e9e704C703E8D87F634fB0Fc9",
  "abi": [
    {
      "inputs": [
        {
          "internalType": "address",
          "name": "vrfCoordinatorV2",
          "type": "address"
        },
        {
          "internalType": "uint256",
          "name": "entranceFee",
          "type": "uint256"
        },
        {
          "internalType": "bytes32",
          "name": "gasLane",
          "type": "bytes32"
        },
        {
          "internalType": "uint64",
          "name": "subscriptionId",
          "type": "uint64"
        },
        {
          "internalType": "uint32",
          "name": "callbackGasLimit",
          "type": "uint32"
        },
        {
          "internalType": "uint256",
          "name": "interval",
          "type": "uint256"
        }
      ],
      "stateMutability": "nonpayable",
      "type": "constructor"
    },
    {
      "inputs": [
        {
          "internalType": "address",
          "name": "have",
          "type": "address"
        },
        {
          "internalType": "address",
          "name": "want",
          "type": "address"
        }
      ],
      "name": "OnlyCoordinatorCanFulfill",
      "type": "error"
    },
    {
      "inputs": [],
      "name": "Raffle__NotEnoughEthEntered",
      "type": "error"
    },
    {
      "inputs": [],
      "name": "Raffle__NotOpen",
      "type": "error"
    },
    {
      "inputs": [],
      "name": "Raffle__TransferFailed",
      "type": "error"
    },
    {
      "inputs": [
        {
          "internalType": "uint256",
          "name": "currentBalance",
          "type": "uint256"
        },
        {
          "internalType": "uint256",
          "name": "numplayers",
          "type": "uint256"
        },
        {
          "internalType": "uint256",
          "name": "raffleState",
          "type": "uint256"
        }
      ],
      "name": "Raffle__UpKeepNotNeeded",
      "type": "error"
    },
    {
      "anonymous": false,
      "inputs": [
        {
          "indexed": true,
          "internalType": "address",
          "name": "player",
          "type": "address"
        }
      ],
      "name": "RaffleEnter",
      "type": "event"
    },
    {
      "anonymous": false,
      "inputs": [
        {
          "indexed": true,
          "internalType": "uint256",
          "name": "requestId",
          "type": "uint256"
        }
      ],
      "name": "RequestRaffleWinner",
      "type": "event"
    },
    {
      "anonymous": false,
      "inputs": [
        {
          "indexed": true,
          "internalType": "address",
          "name": "winner",
          "type": "address"
        }
      ],
      "name": "WinnerPicked",
      "type": "event"
    },
    {
      "inputs": [
        {
          "internalType": "bytes",
          "name": "",
          "type": "bytes"
        }
      ],
      "name": "checkUpkeep",
      "outputs": [
        {
          "internalType": "bool",
          "name": "upKeepNeeded",
          "type": "bool"
        },
        {
          "internalType": "bytes",
          "name": "",
          "type": "bytes"
        }
      ],
      "stateMutability": "view",
      "type": "function"
    },
    {
      "inputs": [],
      "name": "enterRaffle",
      "outputs": [],
      "stateMutability": "payable",
      "type": "function"
    },
    {
      "inputs": [],
      "name": "getEntranceFee",
      "outputs": [
        {
          "internalType": "uint256",
          "name": "",
          "type": "uint256"
        }
      ],
      "stateMutability": "view",
      "type": "function"
    },
    {
      "inputs": [],
      "name": "getInterval",
      "outputs": [
        {
          "internalType": "uint256",
          "name": "",
          "type": "uint256"
        }
      ],
      "stateMutability": "view",
      "type": "function"
    },
    {
      "inputs": [],
      "name": "getLastTimeStamp",
      "outputs": [
        {
          "internalType": "uint256",
          "name": "",
          "type": "uint256"
        }
      ],
      "stateMutability": "view",
      "type": "function"
    },
    {
      "inputs": [],
      "name": "getNumberPlayers",
      "outputs": [
        {
          "internalType": "uint256",
          "name": "",
          "type": "uint256"
        }
      ],
      "stateMutability": "view",
      "type": "function"
    },
    {
      "inputs": [
        {
          "internalType": "uint256",
          "name": "index",
          "type": "uint256"
        }
      ],
      "name": "getPlayers",
      "outputs": [
        {
          "internalType": "address",
          "name": "",
          "type": "address"
        }
      ],
      "stateMutability": "view",
      "type": "function"
    },
    {
      "inputs": [],
      "name": "getRaffleState",
      "outputs": [
        {
          "internalType": "enum Raffle.RaffleState",
          "name": "",
          "type": "uint8"
        }
      ],
      "stateMutability": "view",
      "type": "function"
    },
    {
      "inputs": [],
      "name": "getRecentWinner",
      "outputs": [
        {
          "internalType": "address",
          "name": "",
          "type": "address"
        }
      ],
      "stateMutability": "view",
      "type": "function"
    },
    {
      "inputs": [
        {
          "internalType": "bytes",
          "name": "",
          "type": "bytes"
        }
      ],
      "name": "performUpkeep",
      "outputs": [],
      "stateMutability": "nonpayable",
      "type": "function"
    },
    {
      "inputs": [
        {
          "internalType": "uint256",
          "name": "requestId",
          "type": "uint256"
        },
        {
          "internalType": "uint256[]",
          "name": "randomWords",
          "type": "uint256[]"
        }
      ],
      "name": "rawFulfillRandomWords",
      "outputs": [],
      "stateMutability": "nonpayable",
      "type": "function"
    }
  ],
  "transactionHash": "0xcd8063c669cd37e83ebdc5c2d5b68eb11a42bbc673a94883f960f2c5b179dbf6",
  "args": [
    "0x5FbDB2315678afecb367f032d93F642f64180aa3",
    "100000000000000000",
    "0x474e34a077df58807dbe9c96d3c009b23b3c6d0cce433e59bbf5b34f823bc56c",
    "1",
    "500000",
    "30"
  ],
  "numDeployments": 1,
  "solcInputHash": "ac0f769a9568735ba0553be3d58fe24a",
  "bytecode": "0x6101606040523480156200001257600080fd5b506040516200176a3803806200176a833981810160405281019062000038919062000294565b858073ffffffffffffffffffffffffffffffffffffffff1660808173ffffffffffffffffffffffffffffffffffffffff1681525050508460a081815250508573ffffffffffffffffffffffffffffffffffffffff1660c08173ffffffffffffffffffffffffffffffffffffffff16815250508360e081815250508267ffffffffffffffff166101008167ffffffffffffffff16815250508163ffffffff166101208163ffffffff16815250506000600160146101000a81548160ff021916908360018111156200010d576200010c62000330565b5b0217905550426002819055508061014081815250505050505050506200035f565b600080fd5b600073ffffffffffffffffffffffffffffffffffffffff82169050919050565b6000620001608262000133565b9050919050565b620001728162000153565b81146200017e57600080fd5b50565b600081519050620001928162000167565b92915050565b6000819050919050565b620001ad8162000198565b8114620001b957600080fd5b50565b600081519050620001cd81620001a2565b92915050565b6000819050919050565b620001e881620001d3565b8114620001f457600080fd5b50565b6000815190506200020881620001dd565b92915050565b600067ffffffffffffffff82169050919050565b6200022d816200020e565b81146200023957600080fd5b50565b6000815190506200024d8162000222565b92915050565b600063ffffffff82169050919050565b6200026e8162000253565b81146200027a57600080fd5b50565b6000815190506200028e8162000263565b92915050565b60008060008060008060c08789031215620002b457620002b36200012e565b5b6000620002c489828a0162000181565b9650506020620002d789828a01620001bc565b9550506040620002ea89828a01620001f7565b9450506060620002fd89828a016200023c565b93505060806200031089828a016200027d565b92505060a06200032389828a01620001bc565b9150509295509295509295565b7f4e487b7100000000000000000000000000000000000000000000000000000000600052602160045260246000fd5b60805160a05160c05160e05161010051610120516101405161139b620003cf6000396000818161078c01526107fa0152600061061f015260006105fc015260006105db0152600061059f01526000818161027e015261037b0152600081816102bb015261030f015261139b6000f3fe60806040526004361061009c5760003560e01c8063460e204911610064578063460e204914610153578063473f1ddc146101905780636e04ff0d146101bb57806391ad27b4146101f9578063ada015da14610224578063c1c244e81461024f5761009c565b806309bc33a7146100a1578063115cbaf5146100cc5780631fe543e3146100f75780632cfcc539146101205780634585e33b1461012a575b600080fd5b3480156100ad57600080fd5b506100b661027a565b6040516100c39190610b25565b60405180910390f35b3480156100d857600080fd5b506100e16102a2565b6040516100ee9190610bb7565b60405180910390f35b34801561010357600080fd5b5061011e60048036038101906101199190610d6b565b6102b9565b005b610128610379565b005b34801561013657600080fd5b50610151600480360381019061014c9190610e22565b6104e8565b005b34801561015f57600080fd5b5061017a60048036038101906101759190610e6f565b6106d8565b6040516101879190610edd565b60405180910390f35b34801561019c57600080fd5b506101a561071f565b6040516101b29190610edd565b60405180910390f35b3480156101c757600080fd5b506101e260048036038101906101dd9190610fad565b610749565b6040516101f0929190611090565b60405180910390f35b34801561020557600080fd5b5061020e6107f6565b60405161021b9190610b25565b60405180910390f35b34801561023057600080fd5b5061023961081e565b6040516102469190610b25565b60405180910390f35b34801561025b57600080fd5b5061026461082a565b6040516102719190610b25565b60405180910390f35b60007f0000000000000000000000000000000000000000000000000000000000000000905090565b6000600160149054906101000a900460ff16905090565b7f000000000000000000000000000000000000000000000000000000000000000073ffffffffffffffffffffffffffffffffffffffff163373ffffffffffffffffffffffffffffffffffffffff161461036b57337f00000000000000000000000000000000000000000000000000000000000000006040517f1cf993f40000000000000000000000000000000000000000000000000000000081526004016103629291906110c0565b60405180910390fd5b6103758282610834565b5050565b7f00000000000000000000000000000000000000000000000000000000000000003410156103d3576040517f066d781f00000000000000000000000000000000000000000000000000000000815260040160405180910390fd5b600060018111156103e7576103e6610b40565b5b600160149054906101000a900460ff16600181111561040957610408610b40565b5b14610440576040517f1425571c00000000000000000000000000000000000000000000000000000000815260040160405180910390fd5b6000339080600181540180825580915050600190039060005260206000200160009091909190916101000a81548173ffffffffffffffffffffffffffffffffffffffff021916908373ffffffffffffffffffffffffffffffffffffffff1602179055503373ffffffffffffffffffffffffffffffffffffffff167f0805e1d667bddb8a95f0f09880cf94f403fb596ce79928d9f29b74203ba284d460405160405180910390a2565b600061050260405180602001604052806000815250610749565b509050806105715747600080549050600160149054906101000a900460ff16600181111561053357610532610b40565b5b6040517f3a8d6086000000000000000000000000000000000000000000000000000000008152600401610568939291906110e9565b60405180910390fd5b60018060146101000a81548160ff0219169083600181111561059657610595610b40565b5b021790555060007f000000000000000000000000000000000000000000000000000000000000000073ffffffffffffffffffffffffffffffffffffffff16635d3b1d307f00000000000000000000000000000000000000000000000000000000000000007f000000000000000000000000000000000000000000000000000000000000000060037f000000000000000000000000000000000000000000000000000000000000000060016040518663ffffffff1660e01b8152600401610660959493929190611198565b6020604051808303816000875af115801561067f573d6000803e3d6000fd5b505050506040513d601f19601f820116820180604052508101906106a39190611200565b9050807fde6349b018d6c03d837b67d9a198a6ba4842546f2295fe963fae141e5dbaef8160405160405180910390a250505050565b60008082815481106106ed576106ec61122d565b5b9060005260206000200160009054906101000a900473ffffffffffffffffffffffffffffffffffffffff169050919050565b6000600160009054906101000a900473ffffffffffffffffffffffffffffffffffffffff16905090565b600060606000600160149054906101000a900460ff16600181111561077157610770610b40565b5b6000600181111561078557610784610b40565b5b14905060007f0000000000000000000000000000000000000000000000000000000000000000600254426107b9919061128b565b119050600080600080549050119050600080471190508380156107d95750825b80156107e25750815b80156107eb5750805b955050505050915091565b60007f0000000000000000000000000000000000000000000000000000000000000000905090565b60008080549050905090565b6000600254905090565b600080805490508260008151811061084f5761084e61122d565b5b602002602001015161086191906112ee565b905060008082815481106108785761087761122d565b5b9060005260206000200160009054906101000a900473ffffffffffffffffffffffffffffffffffffffff16905080600160006101000a81548173ffffffffffffffffffffffffffffffffffffffff021916908373ffffffffffffffffffffffffffffffffffffffff1602179055506000600160146101000a81548160ff0219169083600181111561090c5761090b610b40565b5b0217905550600067ffffffffffffffff81111561092c5761092b610c28565b5b60405190808252806020026020018201604052801561095a5781602001602082028036833780820191505090505b5060009080519060200190610970929190610a65565b504260028190555060008173ffffffffffffffffffffffffffffffffffffffff164760405161099e90611350565b60006040518083038185875af1925050503d80600081146109db576040519150601f19603f3d011682016040523d82523d6000602084013e6109e0565b606091505b5050905080610a1b576040517fa1d04b3900000000000000000000000000000000000000000000000000000000815260040160405180910390fd5b8173ffffffffffffffffffffffffffffffffffffffff167f5b690ec4a06fe979403046eaeea5b3ce38524683c3001f662c8b5a829632f7df60405160405180910390a25050505050565b828054828255906000526020600020908101928215610ade579160200282015b82811115610add5782518260006101000a81548173ffffffffffffffffffffffffffffffffffffffff021916908373ffffffffffffffffffffffffffffffffffffffff16021790555091602001919060010190610a85565b5b509050610aeb9190610aef565b5090565b5b80821115610b08576000816000905550600101610af0565b5090565b6000819050919050565b610b1f81610b0c565b82525050565b6000602082019050610b3a6000830184610b16565b92915050565b7f4e487b7100000000000000000000000000000000000000000000000000000000600052602160045260246000fd5b60028110610b8057610b7f610b40565b5b50565b6000819050610b9182610b6f565b919050565b6000610ba182610b83565b9050919050565b610bb181610b96565b82525050565b6000602082019050610bcc6000830184610ba8565b92915050565b6000604051905090565b600080fd5b600080fd5b610bef81610b0c565b8114610bfa57600080fd5b50565b600081359050610c0c81610be6565b92915050565b600080fd5b6000601f19601f8301169050919050565b7f4e487b7100000000000000000000000000000000000000000000000000000000600052604160045260246000fd5b610c6082610c17565b810181811067ffffffffffffffff82111715610c7f57610c7e610c28565b5b80604052505050565b6000610c92610bd2565b9050610c9e8282610c57565b919050565b600067ffffffffffffffff821115610cbe57610cbd610c28565b5b602082029050602081019050919050565b600080fd5b6000610ce7610ce284610ca3565b610c88565b90508083825260208201905060208402830185811115610d0a57610d09610ccf565b5b835b81811015610d335780610d1f8882610bfd565b845260208401935050602081019050610d0c565b5050509392505050565b600082601f830112610d5257610d51610c12565b5b8135610d62848260208601610cd4565b91505092915050565b60008060408385031215610d8257610d81610bdc565b5b6000610d9085828601610bfd565b925050602083013567ffffffffffffffff811115610db157610db0610be1565b5b610dbd85828601610d3d565b9150509250929050565b600080fd5b60008083601f840112610de257610de1610c12565b5b8235905067ffffffffffffffff811115610dff57610dfe610dc7565b5b602083019150836001820283011115610e1b57610e1a610ccf565b5b9250929050565b60008060208385031215610e3957610e38610bdc565b5b600083013567ffffffffffffffff811115610e5757610e56610be1565b5b610e6385828601610dcc565b92509250509250929050565b600060208284031215610e8557610e84610bdc565b5b6000610e9384828501610bfd565b91505092915050565b600073ffffffffffffffffffffffffffffffffffffffff82169050919050565b6000610ec782610e9c565b9050919050565b610ed781610ebc565b82525050565b6000602082019050610ef26000830184610ece565b92915050565b600080fd5b600067ffffffffffffffff821115610f1857610f17610c28565b5b610f2182610c17565b9050602081019050919050565b82818337600083830152505050565b6000610f50610f4b84610efd565b610c88565b905082815260208101848484011115610f6c57610f6b610ef8565b5b610f77848285610f2e565b509392505050565b600082601f830112610f9457610f93610c12565b5b8135610fa4848260208601610f3d565b91505092915050565b600060208284031215610fc357610fc2610bdc565b5b600082013567ffffffffffffffff811115610fe157610fe0610be1565b5b610fed84828501610f7f565b91505092915050565b60008115159050919050565b61100b81610ff6565b82525050565b600081519050919050565b600082825260208201905092915050565b60005b8381101561104b578082015181840152602081019050611030565b60008484015250505050565b600061106282611011565b61106c818561101c565b935061107c81856020860161102d565b61108581610c17565b840191505092915050565b60006040820190506110a56000830185611002565b81810360208301526110b78184611057565b90509392505050565b60006040820190506110d56000830185610ece565b6110e26020830184610ece565b9392505050565b60006060820190506110fe6000830186610b16565b61110b6020830185610b16565b6111186040830184610b16565b949350505050565b6000819050919050565b61113381611120565b82525050565b600067ffffffffffffffff82169050919050565b61115681611139565b82525050565b600061ffff82169050919050565b6111738161115c565b82525050565b600063ffffffff82169050919050565b61119281611179565b82525050565b600060a0820190506111ad600083018861112a565b6111ba602083018761114d565b6111c7604083018661116a565b6111d46060830185611189565b6111e16080830184611189565b9695505050505050565b6000815190506111fa81610be6565b92915050565b60006020828403121561121657611215610bdc565b5b6000611224848285016111eb565b91505092915050565b7f4e487b7100000000000000000000000000000000000000000000000000000000600052603260045260246000fd5b7f4e487b7100000000000000000000000000000000000000000000000000000000600052601160045260246000fd5b600061129682610b0c565b91506112a183610b0c565b92508282039050818111156112b9576112b861125c565b5b92915050565b7f4e487b7100000000000000000000000000000000000000000000000000000000600052601260045260246000fd5b60006112f982610b0c565b915061130483610b0c565b925082611314576113136112bf565b5b828206905092915050565b600081905092915050565b50565b600061133a60008361131f565b91506113458261132a565b600082019050919050565b600061135b8261132d565b915081905091905056fea2646970667358221220133fa7a416b5c506411e7dedeabfb1e7bcff06dd0e53a5008003493882ee063964736f6c63430008120033",
  "devdoc": {
    "kind": "dev",
    "methods": {
      "checkUpkeep(bytes)": {
        "details": "This is the function that the chainlink Keeper nodes call they look for the `upKeepNeeded` to return true The following should be true in order to return true: 1. The Lottery should have more than one user 2. The contract should have some ETH  3. Our subscription should is funded with LINK 4. The Lottery should be in an \"open\" state "
      }
    },
    "version": 1
  },
  "userdoc": {
    "kind": "user",
    "methods": {},
    "version": 1
  },
  "storageLayout": {
    "storage": [
      {
        "astId": 1165,
        "contract": "contracts/Raffle.sol:Raffle",
        "label": "s_players",
        "offset": 0,
        "slot": "0",
        "type": "t_array(t_address_payable)dyn_storage"
      },
      {
        "astId": 1182,
        "contract": "contracts/Raffle.sol:Raffle",
        "label": "s_recentWinner",
        "offset": 0,
        "slot": "1",
        "type": "t_address"
      },
      {
        "astId": 1185,
        "contract": "contracts/Raffle.sol:Raffle",
        "label": "s_raffleState",
        "offset": 20,
        "slot": "1",
        "type": "t_enum(RaffleState)1160"
      },
      {
        "astId": 1187,
        "contract": "contracts/Raffle.sol:Raffle",
        "label": "s_lastTimeStamp",
        "offset": 0,
        "slot": "2",
        "type": "t_uint256"
      }
    ],
    "types": {
      "t_address": {
        "encoding": "inplace",
        "label": "address",
        "numberOfBytes": "20"
      },
      "t_address_payable": {
        "encoding": "inplace",
        "label": "address payable",
        "numberOfBytes": "20"
      },
      "t_array(t_address_payable)dyn_storage": {
        "base": "t_address_payable",
        "encoding": "dynamic_array",
        "label": "address payable[]",
        "numberOfBytes": "32"
      },
      "t_enum(RaffleState)1160": {
        "encoding": "inplace",
        "label": "enum Raffle.RaffleState",
        "numberOfBytes": "1"
      },
      "t_uint256": {
        "encoding": "inplace",
        "label": "uint256",
        "numberOfBytes": "32"
      }
    }
  }
}